:100000005DC0000082C0000080C000007EC0000013
:100010007CC000007AC0000078C0000076C00000FC
:1000200074C0000072C0000070C000006EC000000C
:100030006CC000006AC0000068C0000066C000001C
:10004000DCC5000062C0000002C5000032C500002F
:100050005CC000005AC0000058C0000056C000003C
:1000600054C0000052C0000000000008000201005F
:100070000003040700000000000000000102040863
:100080001020408001020408102001020408102002
:10009000040404040404040402020202020203032E
:1000A0000303030300000000250028002B000000CC
:1000B0000000240027002A00BB03870511241FBE6F
:1000C000CFEFD8E0DEBFCDBF11E0A0E0B1E0E4EFBC
:1000D000FEE102C005900D92A033B107D9F722E0EE
:1000E000A0E3B1E001C01D92A230B207E1F710E039
:1000F000CCEBD0E004C02297FE010E946209C83B0D
:10010000D107C9F770D50C94780F7ACFEF92FF9290
:100110000F931F93CF93DF93CDB7DEB7C055D109AF
:100120000FB6F894DEBF0FBECDBF6B960EAD1FAD00
:100130006B979E01235A3F4F6D964EAD5FAD6D9705
:1001400060E570E0CE0101960E94AF0CCE010196F1
:100150007C01F70180818823B9F08A3049F4D80105
:10016000ED91FC910190F081E02D6DE0C8010995C1
:10017000D801ED91FC910190F081E02DD7016D91B6
:100180007D01C8010995E5CFC05BDF4F0FB6F8943C
:10019000DEBF0FBECDBFDF91CF911F910F91FF90BA
:1001A000EF90089562E388E491E0F9D788E491E064
:1001B000E8D626E040E855E260E070E088E591E0AE
:1001C000E6D362E08EE038D661E08DE035C68EE0A1
:1001D000EDD59093470180934601209138013091ED
:1001E00039012817390724F4909339018093380195
:1001F00020910C0130910D018217930724F4909304
:100200000D0180930C010895CF92DF92EF92FF923F
:10021000CF93DF93C0910C01D0910D01BE018827CF
:1002200077FD8095982F0E946A0A6B017C0160918E
:100230003801709139016C1B7D0B882777FD809503
:10024000982F0E946A0A209106013091070140917F
:100250000801509109010E941E0B9B01AC01C701CE
:10026000B6010E9467090E94370A70930B016093E0
:100270000A01DF91CF91FF90EF90DF90CF9008952A
:100280008F929F92AF92BF92CF92DF92EF92FF92A6
:10029000CF93DF934B015C01FAD4C0904001D09022
:1002A0004101E0904201F09043016C197D098E09F3
:1002B0009F090E946A0A6B017C0160910E01709196
:1002C0000F01882777FD8095982F0E946A0A9B016D
:1002D000AC01C701B6010E94CF096B017C0120E08F
:1002E00030E040E05FE30E94CB0987FF5CC088E418
:1002F00091E051D7BC0180E090E00E94680AA7011C
:1003000096010E941E0B9B01AC01E1D720E030E07A
:10031000A9010E941A0B87FD15C088E491E03BD724
:10032000BC0180E090E00E94680AA70196010E944B
:100330001E0B9B01AC01CBD720E030E040E05FE337
:10034000C6D714C088E491E026D7BC0180E090E0D5
:100350000E94680AA70196010E941E0B9B01AC0136
:10036000B6D720E030E040E05FE3B0D70E94370A24
:100370006B01E12CF12C88E491E00DD7E816F90629
:1003800008F050C0EC14FD0418F4A501940103C05A
:1003900020E030E0A901B70188E491E0ADD68FEF0D
:1003A000E81AF80AE8CF88E491E0F5D6EC0120E0FD
:1003B00030E040E05FE3C701B60188D76B017C0104
:1003C000BE0180E090E00E94680AA70196010E94A9
:1003D0001E0B9B01AC017BD720E030E0A9010E94FD
:1003E0001A0B87FD2CC088E491E0D5D6BC0180E0D3
:1003F00090E00E94680AA70196010E941E0B9B01D3
:10040000AC0165D720E030E040E05FE360D70E94B8
:10041000370A6B01E12CF12C88E491E0BCD6E81698
:10042000F90610F188E491E0DF91CF91FF90EF9011
:10043000DF90CF90BF90AF909F908F90ADC588E434
:1004400091E0A9D6BC0180E090E00E94680AA70173
:1004500096010E941E0B9B01AC0139D720E030E0D1
:1004600040E05FE333D7D3CFEC14FD0420F420E069
:1004700030E0A90102C0A5019401B70188E491E030
:100480003BD68FEFE81AF80AC7CF0F931F938091DE
:100490004401882339F040E06AE58FEF73D6F0DE3F
:1004A00061E001C060E08DE000D5F1D30091300142
:1004B000109131012091320130913301601B710B99
:1004C000820B930B693C710581059105F0F0DFD338
:1004D0006093300170933101809332019093330126
:1004E000809147018F93809146018F9381E191E044
:1004F0009F938F9388E591E09F938F9307DE0F90F2
:100500000F900F900F900F900F901F910F910895E3
:10051000853540F4982F990F980F692F609540E02A
:10052000892F12C08A3A48F49BEA980F892F880FC6
:10053000890F482F60E0809507C08A5A682F660FA0
:10054000680F462F409580E01DC6AF92BF92CF92B4
:10055000DF92EF92FF920F931F93CF93DF9393E07D
:10056000A92EB12CC82ED12CE12CF12C00E010E0EA
:10057000C0E0D0E088E491E00ED6C817D90758F45F
:100580008C2F800FC5DF9B01AC01BE0188E491E098
:10059000B3D52196EFCF88E491E0FED4C701B60130
:1005A000A5D30F5F1F4F011581E0180709F781E000
:1005B000A81AB108A114B104C9F6DF91CF911F9117
:1005C0000F91FF90EF90DF90CF90BF90AF90089584
:1005D000CF93DF93C0E0D0E088E491E0DCD5C8178A
:1005E000D90748F420E030E0A901BE0188E491E099
:1005F00083D52196F1CF88E491E0DF91CF91CCC4EF
:100600000F931F9344D30091340110913501209131
:10061000360130913701601B710B820B930B6233F3
:1006200071058105910508F49EC0809145018823DC
:10063000B9F080910A0190910B0102962091460138
:1006400030914701821793075CF421D36093340102
:1006500070933501809336019093370110924501D4
:100660008091450181115CC080910A0190910B013C
:1006700002972091460130914701281739070CF065
:100680004FC005D3609334017093350180933601D8
:100690009093370181E080934501F9D200913C01AC
:1006A00010913D0120913E0130913F01601B710B83
:1006B000820B930B603971408105910530F4809174
:1006C0003A0190913B01019602C081E090E0909345
:1006D0003B0180933A01DBD260933C0170933D0172
:1006E00080933E0190933F0180913A0190913B01AC
:1006F000079734F010923B0110923A0185E025DF14
:100700008091440181110CC081E080934401BFD2EB
:1007100060934001709341018093420190934301A3
:10072000809144018823F9F0B2D2009140011091E8
:1007300041012091420130914301601B710B820BFA
:10074000930B00910E0110910F01222717FD2095A8
:10075000322F061717072807390728F4109244018B
:100760001F910F9135CF1F910F91089530DD4CDD12
:1007700047CFFCDF8ACE23E049E06EE170E088E4F9
:1007800091E0C9D384D2609340017093410180937A
:100790004201909343017BD260933C0170933D01F1
:1007A00080933E0190933F0172D260933401709325
:1007B0003501809336019093370169D260933001FF
:1007C0007093310180933201909333010895FC01BD
:1007D000818D228D90E0805C9F4F821B91098F73E9
:1007E00099270895FC01918D828D981731F0828DA3
:1007F000E80FF11D858D90E008958FEF9FEF08952C
:10080000FC01918D828D981761F0828DDF01A80F18
:10081000B11D5D968C91928D9F5F9F73928F90E03A
:1008200008958FEF9FEF08958EE795E0892B41F0B3
:1008300080E090E0892B21F061D181110C940000BF
:100840000895FC01848DDF01A80FB11DA35ABF4F8D
:100850002C91848D90E001968F739927848FA689BF
:10086000B7892C93A089B1898C9180648C93938DE6
:10087000848D981306C00288F389E02D80818F7DD6
:1008800080830895CF93DF93EC01888D8823C1F096
:10089000EA89FB89808185FD05C0A889B9898C9189
:1008A00086FD0EC00FB607FCF5CF808185FFF2CF25
:1008B000A889B9898C9185FFEDCFCE01C2DFE8CF41
:1008C000DF91CF910895CF92DF92FF920F931F9304
:1008D000CF93DF931F92CDB7DEB76C01DC015B963F
:1008E0009C915B975C968C915C97981307C050968F
:1008F000ED91FC915197808185FD31C0F601038D0A
:1009000010E00F5F1F4F0F731127F02EF601848D3B
:10091000F81210C00FB607FCF9CFD6015096ED9132
:10092000FC915197808185FFF1CFC601698389DFF2
:100930006981ECCF838DE80FF11DE35AFF4F60838F
:10094000D6015B960C935B975296ED91FC91539771
:1009500080818062808381E058968C930DC0D6019F
:100960005696ED91FC91579760835096ED91FC91CE
:10097000519780818064808381E090E00F90DF91C7
:10098000CF911F910F91FF90DF90CF900895BF926C
:10099000CF92DF92EF92FF92CF93DF93EC016A0147
:1009A0007B01B22EE889F98982E08083411581EECE
:1009B00058076105710599F060E079E08DE390E0FA
:1009C000A70196013FD4215031094109510956959B
:1009D000479537952795211580E1380790F0E889EC
:1009E000F989108260E874E88EE190E0A701960131
:1009F00029D4215031094109510956954795379518
:100A00002795EC85FD853083EE85FF852083188E44
:100A1000EC89FD89B082EA89FB89808180618083CD
:100A2000EA89FB89808188608083EA89FB898081EB
:100A300080688083EA89FB8980818F7D8083DF9154
:100A4000CF91FF90EF90DF90CF90BF9008951F92CD
:100A50000F920FB60F9211242F938F939F93EF93C2
:100A6000FF93E0916801F09169018081E0916E014E
:100A7000F0916F0182FD12C09081809171018F5FB2
:100A80008F7320917201821751F0E0917101F0E0B3
:100A9000E85AFE4F958F8093710101C08081FF91CC
:100AA000EF919F918F912F910F900FBE0F901F90FC
:100AB00018951F920F920FB60F9211242F933F9308
:100AC0004F935F936F937F938F939F93AF93BF9356
:100AD000EF93FF9388E591E0B4DEFF91EF91BF9132
:100AE000AF919F918F917F916F915F914F913F91C6
:100AF0002F910F900FBE0F901F90189588E591E0F1
:100B000066DE21E0892B09F420E0822F08951092FF
:100B10005B0110925A0188EE93E0A0E0B0E0809370
:100B20005C0190935D01A0935E01B0935F0183E24D
:100B300091E0909359018093580185EC90E0909357
:100B400065018093640184EC90E090936701809349
:100B5000660180EC90E0909369018093680181ECDC
:100B600090E090936B0180936A0182EC90E0909307
:100B70006D0180936C0186EC90E090936F018093FF
:100B80006E01109271011092720110927301109215
:100B900074010895CF92DF92EF92FF920F931F930B
:100BA000CF93DF936C017A01EB01E60EF71E00E0B4
:100BB00010E0CE15DF0561F06991D601ED91FC9151
:100BC0000190F081E02DC6010995080F191FF1CFA2
:100BD000C801DF91CF911F910F91FF90EF90DF90AF
:100BE000CF9008950895A7D0FDDFDCDAC4E1D4E00A
:100BF000C0DD2097E9F318DEFBCF1F920F920FB6EE
:100C00000F9211242F933F938F939F93AF93BF9392
:100C10008091F6019091F701A091F801B091F9014E
:100C20003091F50123E0230F2D3720F40196A11D0B
:100C3000B11D05C026E8230F0296A11DB11D20930A
:100C4000F5018093F6019093F701A093F801B0931A
:100C5000F9018091FA019091FB01A091FC01B09102
:100C6000FD010196A11DB11D8093FA019093FB0136
:100C7000A093FC01B093FD01BF91AF919F918F9123
:100C80003F912F910F900FBE0F901F9018952FB787
:100C9000F8946091F6017091F7018091F8019091BC
:100CA000F9012FBF08953FB7F8948091FA01909110
:100CB000FB01A091FC01B091FD0126B5A89B05C0E8
:100CC0002F3F19F00196A11DB11D3FBF6627782F58
:100CD000892F9A2F620F711D811D911D42E0660FB1
:100CE000771F881F991F4A95D1F70895CF92DF92F9
:100CF000EF92FF92CF93DF936B017C01D4DFEB0186
:100D0000C114D104E104F10479F004D1CCDF6C1BEF
:100D10007D0B683E7340A0F381E0C81AD108E1085A
:100D2000F108C851DC4FECCFDF91CF91FF90EF90ED
:100D3000DF90CF900895789484B5826084BD84B5A7
:100D4000816084BD85B5826085BD85B5816085BDC6
:100D5000EEE6F0E0808181608083E1E8F0E01082DF
:100D6000808182608083808181608083E0E8F0E020
:100D7000808181608083E1EBF0E08081846080830A
:100D8000E0EBF0E0808181608083EAE7F0E0808141
:100D900084608083808182608083808181608083A1
:100DA0008081806880831092C10008958E3008F0A1
:100DB0008E5087702091100190E4299F900111249A
:100DC000822B80937C0080917A00806480937A00EB
:100DD00080917A0086FDFCCF809178002091790087
:100DE00090E0922B0895833081F028F4813099F0BF
:100DF0008230A1F008958730A9F08830B9F08430AE
:100E0000D1F4809180008F7D03C0809180008F7726
:100E100080938000089584B58F7702C084B58F7D5C
:100E200084BD08958091B0008F7703C08091B00099
:100E30008F7D8093B0000895CF93DF9390E0FC0105
:100E4000E458FF4F2491FC01E057FF4F8491882321
:100E500049F190E0880F991FFC01E255FF4FA591E1
:100E6000B4918C559F4FFC01C591D4919FB76111EE
:100E700008C0F8948C91209582238C9388818223DA
:100E80000AC0623051F4F8948C91322F309583234C
:100E90008C938881822B888304C0F8948C91822B58
:100EA0008C939FBFDF91CF9108950F931F93CF93A2
:100EB000DF931F92CDB7DEB7282F30E0F901E85954
:100EC000FF4F8491F901E458FF4F1491F901E05765
:100ED000FF4F04910023C1F0882319F0698383DF59
:100EE0006981E02FF0E0EE0FFF1FEC55FF4FA59159
:100EF000B4919FB7F8948C91611103C01095812330
:100F000001C0812B8C939FBF0F90DF91CF911F91D8
:100F10000F91089508950F931F93CF93DF93EC01E2
:100F2000798368838B01000F111F060F171F1B8326
:100F30000A834C832D8350E0FA01E057FF4FE49180
:100F4000F0E0EE0FFF1FEC55FF4F859194919E87C7
:100F50008D87FA01E458FF4F44914F87C801D1D3E0
:100F600098878F83009741F0A80160E070E0DF91DF
:100F7000CF911F910F91ECC4DF91CF911F910F91F1
:100F80000895CF93DF93EC0161E08C8155DF60E041
:100F90008C81DF91CF9189CFCF92DF92EF92FF9238
:100FA0000F931F93CF93DF93CDB7DEB729970FB67B
:100FB000F894DEBF0FBECDBF8C01DC0117968D917A
:100FC0009C911897892B09F488C06DDEF801C184C3
:100FD000D284E384F4846C197D098E099F096233FD
:100FE00071058105910588F3F894828193819A8334
:100FF00089830780F085E02D7F01BFEFEB1AFB0AA4
:1010000080818987F80195810584F685E02DD801D6
:101010001F968C9191FF28C09081982B9887908182
:10102000809589238F838F818E8388E08D832885A7
:1010300039854D815E816F8189819A81D7012083B5
:1010400037FD522F4A955083562F39F0331F00C079
:1010500000006083000000C0F2CF48E03D91608353
:101060000000019761F732C09081982B988790819A
:10107000809589238F838F818C8388E08B8328855B
:1010800039854B815C816F8189819A81D701208369
:1010900037FD522F00C000C0508300C000C000C008
:1010A00000C000C060830000562F4A9541F0331FF6
:1010B000000000C000C000C000C000C0E8CF48E091
:1010C0003D9100C0608300C0019709F77894EBDD83
:1010D000F801618772878387948729960FB6F89401
:1010E000DEBF0FBECDBFDF91CF911F910F91FF905B
:1010F000EF90DF90CF900895CF92DF92EF92FF9222
:101100000F931F93CF93DF93FC0180819181681728
:10111000790778F5CA01AA27BB27182FC32ED42E2A
:10112000E52EFF24DC2D022FC681CC2361F08C9F9D
:10113000C0011124192FCC9E60011124DD2D2C9F9C
:1011400090011124032FCB01880F991F860F971F41
:10115000A781B085A80FB91F8581FD01329680FF58
:1011600004C0DC9311961C9303C01C931196DC936E
:101170000083DF91CF911F910F91FF90EF90DF904F
:10118000CF900895962F50E060E070E0592B682BC7
:10119000CB01BA010895FC01808191810895FF92ED
:1011A0000F931F93CF93DF93EC01FF24F394F60E7C
:1011B0002E81F21669F10F8118852150A9F06F3F39
:1011C00051F430E040E050E06FEF7FEF80E090E0DE
:1011D0005BD0B9010BC08F2D90E0982F8827019725
:1011E000622F70E01BD002C060E070E0F8018A81DD
:1011F0009B81AF01401B510B4817590740F44081B8
:10120000469FC001479F900D11249193F0CFFE821D
:10121000DF91CF911F910F91FF900895AA1BBB1BE7
:1012200051E107C0AA1FBB1FA617B70710F0A61BE6
:10123000B70B881F991F5A95A9F780959095BC0107
:10124000CD010895A1E21A2EAA1BBB1BFD010DC002
:10125000AA1FBB1FEE1FFF1FA217B307E407F50766
:1012600020F0A21BB30BE40BF50B661F771F881F42
:10127000991F1A9469F760957095809590959B01D8
:10128000AC01BD01CF010895052E97FB16F4009423
:101290000FD057FD05D0D6DF07FC02D046F408C0BA
:1012A00050954095309521953F4F4F4F5F4F089592
:1012B00090958095709561957F4F8F4F9F4F0895C2
:1012C000EE0FFF1F0590F491E02D09945058BB27B5
:1012D000AA270ED075C166D130F06BD120F031F461
:1012E0009F3F11F41EF45BC10EF4E095E7FB51C182
:1012F000E92F77D180F3BA17620773078407950740
:1013000018F071F49EF58FC10EF4E0950B2EBA2FF4
:10131000A02D0B01B90190010C01CA01A0011124FB
:10132000FF27591B99F0593F50F4503E68F11A16A7
:10133000F040A22F232F342F4427585FF3CF469538
:1013400037952795A795F0405395C9F77EF41F165A
:10135000BA0B620B730B840BBAF09150A1F0FF0F24
:10136000BB1F661F771F881FC2F70EC0BA0F621F10
:10137000731F841F48F4879577956795B795F79500
:101380009E3F08F0B3CF9395880F08F09927EE0F92
:10139000979587950895D9D008F481E008950CD0E9
:1013A0000FC107D140F0FED030F021F45F3F19F0BB
:1013B000F0C0511139C1F3C014D198F39923C9F386
:1013C0005523B1F3951B550BBB27AA27621773074B
:1013D000840738F09F5F5F4F220F331F441FAA1FFF
:1013E000A9F333D00E2E3AF0E0E830D091505040BF
:1013F000E695001CCAF729D0FE2F27D0660F771F6D
:10140000881FBB1F261737074807AB07B0E809F04E
:10141000BB0B802DBF01FF2793585F4F2AF09E3FE3
:10142000510568F0B6C000C15F3FECF3983EDCF3B5
:10143000869577956795B795F7959F5FC9F7880F5C
:10144000911D9695879597F90895E1E0660F771FAE
:10145000881FBB1F621773078407BA0720F0621B3F
:10146000730B840BBA0BEE1F88F7E095089504D038
:101470006894B111D9C00895BCD088F09F5790F0FE
:10148000B92F9927B751A0F0D1F0660F771F881FA9
:10149000991F1AF0BA95C9F712C0B13081F0C3D0C4
:1014A000B1E00895C0C0672F782F8827B85F39F062
:1014B000B93FCCF3869577956795B395D9F73EF408
:1014C00090958095709561957F4F8F4F9F4F0895B0
:1014D000E89409C097FB3EF49095809570956195CE
:1014E0007F4F8F4F9F4F9923A9F0F92F96E9BB2784
:1014F0009395F695879577956795B795F111F8CF00
:10150000FAF4BB0F11F460FF1BC06F5F7F4F8F4F6A
:101510009F4F16C0882311F096E911C0772321F060
:101520009EE8872F762F05C0662371F096E8862FF8
:1015300070E060E02AF09A95660F771F881FDAF74F
:10154000880F9695879597F90895990F0008550F7C
:10155000AA0BE0E8FEEF16161706E807F907C0F039
:1015600012161306E407F50798F0621B730B840B41
:10157000950B39F40A2661F0232B242B252B21F41B
:1015800008950A2609F4A140A6958FEF811D811DBB
:10159000089597F99F6780E870E060E008959FEFF5
:1015A00080EC089500240A941616170618060906FA
:1015B000089500240A9412161306140605060895C9
:1015C000092E0394000C11F4882352F0BB0F40F451
:1015D000BF2B11F460FF04C06F5F7F4F8F4F9F4F91
:1015E000089557FD9058440F551F59F05F3F71F013
:1015F0004795880F97FB991F61F09F3F79F087957A
:101600000895121613061406551FF2CF4695F1DF02
:1016100008C0161617061806991FF1CF8695710592
:10162000610508940895E894BB2766277727CB01C6
:1016300097F908958ADF08F48FEF08950BD0C0CF93
:10164000B1DF28F0B6DF18F0952309F0A2CFA7CFBD
:101650001124EACFC6DFA0F3959FD1F3950F50E098
:10166000551F629FF001729FBB27F00DB11D639F54
:10167000AA27F00DB11DAA1F649F6627B00DA11DFA
:10168000661F829F2227B00DA11D621F739FB00DA0
:10169000A11D621F839FA00D611D221F749F332710
:1016A000A00D611D231F849F600D211D822F762FA9
:1016B0006A2F11249F5750408AF0E1F088234AF0A6
:1016C000EE0FFF1FBB1F661F771F881F91505040F2
:1016D000A9F79E3F510570F05CCFA6CF5F3FECF3BA
:1016E000983EDCF3869577956795B795F795E795DE
:1016F0009F5FC1F7FE2B880F911D9695879597F9EF
:101700000895CF93DF938230910510F482E090E04A
:10171000E0910002F091010220E030E0A0E0B0E0B2
:10172000309739F14081518148175907B8F048176F
:10173000590771F482819381109729F013969C9335
:101740008E9312972CC0909301028093000227C0C1
:101750002115310531F04217530718F0A901DB01BB
:1017600001C0EF019A01BD01DF010280F381E02D8C
:10177000D7CF21153105F9F0281B390B243031055D
:1017800080F48A819B816115710521F0FB019383AF
:10179000828304C09093010280930002FE0132967E
:1017A00044C0FE01E20FF31F81939193225031094F
:1017B000398328833AC02091FE013091FF01232B09
:1017C00041F420910201309103013093FF012093F5
:1017D000FE0120910001309101012115310541F4F4
:1017E0002DB73EB74091040150910501241B350BE4
:1017F000E091FE01F091FF01E217F307A0F42E1B28
:101800003F0B2817390778F0AC014E5F5F4F241764
:10181000350748F04E0F5F1F5093FF014093FE01C4
:101820008193919302C0E0E0F0E0CF01DF91CF918E
:101830000895CF93DF93009709F487C0FC01329796
:1018400013821282C0910002D0910102209781F48C
:1018500020813181280F391F8091FE019091FF0175
:101860008217930779F5F093FF01E093FE016DC0B5
:10187000DE0120E030E0AE17BF0750F412964D9124
:101880005C9113979D014115510509F1DA01F3CFE0
:10189000B383A28340815181840F951F8A179B07D0
:1018A00071F48D919C911197840F951F02969183ED
:1018B000808312968D919C91139793838283211537
:1018C000310529F4F0930102E09300023EC0D901F2
:1018D0001396FC93EE9312974D915D91A40FB51F53
:1018E000EA17FB0779F480819181840F951F029696
:1018F000D90111969C938E938281938113969C9328
:101900008E931297E0E0F0E08A819B81009719F0B6
:10191000FE01EC01F9CFCE01029628813981820FB8
:10192000931F2091FE013091FF012817390769F4B8
:10193000309729F4109201021092000202C0138223
:101940001282D093FF01C093FE01DF91CF910895E1
:10195000DC0101C06D9341505040E0F70895AEE0C6
:10196000B0E0E4EBFCE09BC28C01CA0146E04C8392
:101970001A83098377FF02C060E070E86150710943
:101980007E836D83A901BC01CE01019611D04D81EA
:101990005E8157FD0AC02F813885421753070CF42A
:1019A0009A01F801E20FF31F10822E96E4E093C231
:1019B000ACE0B0E0EDEDFCE064C27C016B018A01BB
:1019C000FC0117821682838181FFB0C1CE0101968E
:1019D0004C01F7019381F60193FD859193FF81916D
:1019E0006F01882309F49EC1853239F493FD8591F6
:1019F00093FF81916F01853221F4B70190E0B1D15D
:101A0000E8CF512C312C20E02032A0F48B3269F049
:101A100030F4803259F0833269F420612CC08D3269
:101A200039F0803339F4216026C02260246023C05D
:101A3000286021C027FD27C030ED380F3A3078F4F8
:101A400026FF06C0FAE05F9E300D1124532E13C00E
:101A50008AE0389E300D1124332E20620CC08E3265
:101A600021F426FD5FC1206406C08C3611F4206885
:101A700002C0883641F4F60193FD859193FF819170
:101A80006F018111C1CF982F9F7D9554933028F419
:101A90000C5F1F4FFFE3F9830DC0833631F08337AE
:101AA00071F0833509F057C021C0F8018081898326
:101AB0000E5F1F4F44244394512C540114C038012D
:101AC000F2E06F0E711CF801A080B18026FF03C008
:101AD000652D70E002C06FEF7FEFC5012C8736D116
:101AE0002C0183012C852F77222E16C03801F2E0BD
:101AF0006F0E711CF801A080B18026FF03C0652D18
:101B000070E002C06FEF7FEFC5012C8714D12C016C
:101B10002C852068222E830123FC19C0832D90E0A0
:101B200048165906A0F4B70180E290E01AD13A9421
:101B3000F5CFF50127FC859127FE81915F01B70163
:101B400090E00FD131103A94F1E04F1A510841144E
:101B5000510479F7DEC0843611F0893631F5F80189
:101B600027FF07C060817181828193810C5F1F4FC5
:101B700008C060817181882777FD8095982F0E5F5E
:101B80001F4F2F76B22E97FF09C0909580957095C4
:101B900061957F4F8F4F9F4F2068B22E2AE030E033
:101BA000A40111D1A82EA81843C0853729F42F7E8F
:101BB000B22E2AE030E025C0F22FF97FBF2E8F36FB
:101BC000C1F018F4883579F0ADC0803719F0883746
:101BD00021F0A8C02F2F2061B22EB4FE0DC08B2D96
:101BE0008460B82E09C024FF0AC09F2F9660B92ECA
:101BF00006C028E030E005C020E130E002C020E16E
:101C000032E0F801B7FE07C0608171818281938163
:101C10000C5F1F4F06C06081718180E090E00E5F15
:101C20001F4FA401D0D0A82EA818FB2DFF77BF2EE0
:101C3000B6FE0BC02B2D2E7FA51450F4B4FE0AC0A7
:101C4000B2FC08C02B2D2E7E05C07A2C2B2D03C094
:101C50007A2C01C0752C24FF0DC0FE01EA0DF11D88
:101C60008081803311F4297E09C022FF06C073945D
:101C7000739404C0822F867809F0739423FD12C0F8
:101C800020FF06C05A2C731418F4530C5718732CE9
:101C9000731460F4B70180E290E02C8762D07394F3
:101CA0002C85F6CF731410F4371801C0312C24FFA3
:101CB00011C0B70180E390E02C8753D02C8522FF20
:101CC00016C021FF03C088E590E002C088E790E0DD
:101CD000B7010CC0822F867851F021FD02C080E24E
:101CE00001C08BE227FD8DE2B70190E03AD0A51448
:101CF00030F4B70180E390E034D05A94F8CFAA943E
:101D0000F401EA0DF11D8081B70190E02AD0A11005
:101D1000F6CF332009F45DCEB70180E290E021D008
:101D20003A94F7CFF7018681978102C08FEF9FEF3A
:101D30002C96E2E1C2C0FC01059061507040011098
:101D4000D8F7809590958E0F9F1F0895FC016150E4
:101D5000704001900110D8F7809590958E0F9F1FCD
:101D600008950F931F93CF93DF93182F092FEB0143
:101D70008B8181FD03C08FEF9FEF20C082FF10C0D9
:101D80004E815F812C813D81421753077CF4E881AD
:101D9000F9819F012F5F3F4F39832883108306C04D
:101DA000E885F985812F0995892B29F72E813F81B7
:101DB0002F5F3F4F3F832E83812F902FDF91CF9155
:101DC0001F910F910895FA01AA27283051F120316F
:101DD00081F1E8946F936E7F6E5F7F4F8F4F9F4FBF
:101DE000AF4FB1E03ED0B4E03CD0670F781F891F01
:101DF0009A1FA11D680F791F8A1F911DA11D6A0FCF
:101E0000711D811D911DA11D20D009F468943F9181
:101E10002AE0269F11243019305D3193DEF6CF0180
:101E20000895462F4770405D4193B3E00FD0C9F746
:101E3000F6CF462F4F70405D4A3318F0495D31FDB3
:101E40004052419302D0A9F7EACFB4E0A695979506
:101E5000879577956795BA95C9F7009761057105DC
:101E600008959B01AC010A2E069457954795379526
:101E70002795BA95C9F7620F731F841F951FA01D80
:101E800008952F923F924F925F926F927F928F921E
:101E90009F92AF92BF92CF92DF92EF92FF920F93F9
:101EA0001F93CF93DF93CDB7DEB7CA1BDB0B0FB603
:101EB000F894DEBF0FBECDBF09942A8839884888C0
:101EC0005F846E847D848C849B84AA84B984C88456
:101ED000DF80EE80FD800C811B81AA81B981CE0F4D
:101EE000D11D0FB6F894DEBF0FBECDBFED01089532
:041EF000F894FFCF94
:101EF400000002022000CDCCCC3E28006400580231
:101F04000170726573737572653A2025640A000066
:101F14000000006304CA05E7030004F2034204005E
:00000001FF
